:100000000C942A000C9447000C9447000C94470071
:100010000C9447000C9447000C942A060C94D805C5
:100020000C9401060C9447000C9447000C94720346
:100030000C9447000C9447000C9447000C94470024
:100040000C9447000C9447000C9447000C94470014
:100050000C94470011241FBECFE5D8E0DEBFCDBF12
:1000600010E0A0E6B0E0ECE2FDE002C005900D92E9
:10007000AA38B107D9F720E0AAE8B0E001C01D9284
:10008000A63AB207E1F70E944D030C9494060C9433
:100090000000CF93C82F60E08CE00E9432056C2FE7
:1000A000661F6627661F87E00E943205C6FB66272B
:1000B00060F986E00E943205C5FB662760F985E09D
:1000C0000E943205C4FB662760F984E00E94320575
:1000D00061E08BE00E9432058FEC97E00197F1F729
:1000E00000C0000060E08BE00E9432058FEC97E0DA
:1000F0000197F1F700C00000C3FB662760F987E0B5
:100100000E943205C2FB662760F986E00E94320534
:10011000C1FB662760F985E00E9432056C2F617093
:1001200084E00E94320561E08BE00E9432058FEC92
:1001300097E00197F1F700C0000060E08BE00E94BB
:1001400032058FEC97E00197F1F700C00000CF91E6
:100150000895CF93C82F61E08CE00E9432056C2F88
:10016000661F6627661F87E00E943205C6FB66276A
:1001700060F986E00E943205C5FB662760F985E0DC
:100180000E943205C4FB662760F984E00E943205B4
:1001900061E08BE00E9432058FEC97E00197F1F768
:1001A00000C0000060E08BE00E9432058FEC97E019
:1001B0000197F1F700C00000C3FB662760F987E0F4
:1001C0000E943205C2FB662760F986E00E94320574
:1001D000C1FB662760F985E00E9432056C2F6170D3
:1001E00084E00E94320561E08BE00E9432058FECD2
:1001F00097E00197F1F700C0000060E08BE00E94FB
:1002000032058FEC97E00197F1F700C00000CF9125
:1002100008952FE788E391E0215080409040E1F776
:1002200000C0000082E00E94490088E20E9449006C
:100230008CE00E94490081E00E9449008FEC97E029
:100240000197F1F700C0000086E00C94490081118D
:1002500002C080E803C0813021F480EC860F0C944A
:100260004900089581E00E9449008FEC97E00197D2
:10027000F1F700C0000008950F931F93CF938C01F6
:10028000C0E0F801EC0FF11DC7FDFA9580818823CD
:1002900021F00E94A900CF5FF4CFCF911F910F9161
:1002A00008954F925F926F927F92AF92BF92CF92DA
:1002B000DF92EF92FF921F93CF93DF93CDB7DEB71C
:1002C00064970FB6F894DEBF0FBECDBF6B017C0103
:1002D0006115710581059105B1F480E364960FB64F
:1002E000F894DEBF0FBECDBFDF91CF911F91FF907D
:1002F000EF90DF90CF90BF90AF907F906F905F9026
:100300004F900C94A90097FF0BC08DE20E94A900AA
:10031000F094E094D094C094C11CD11CE11CF11C59
:1003200010E09AE0492E512C612C712CAA24A39440
:10033000B12CAC0EBD1EA10EB11CC701B601A301AC
:1003400092010E945306605DF501608381E0810F98
:1003500069017A01C114D104E104F10411F0182FEC
:10036000E5CFF12EF7FC0DC0E1E0F0E0EC0FFD1F52
:10037000EF0DF11DF7FCFA9580810E94A900FA9417
:10038000F1CF64960FB6F894DEBF0FBECDBFDF91FC
:10039000CF911F91FF90EF90DF90CF90BF90AF90E3
:1003A0007F906F905F904F9008950F931F93CF931E
:1003B000DF930AE810E0D4E0D80FC82FF80181914C
:1003C0008F01833059F58091980090919900A09108
:1003D0009A00B0919B0084319105A105B10510F4FC
:1003E00061E00CC0AC01BD014451510961097109C2
:1003F000443151056105710528F460E08C2F0E949D
:1004000032050CC0CC97A105B10540F010929800C0
:100410001092990010929A0010929B00CF5FCD131A
:10042000CDCFDF91CF911F910F9108950F931F931F
:10043000CF93DF930AE810E0D4E0D80FC82FF8017B
:1004400081918F01823061F580919800909199009F
:10045000A0919A00B0919B0088329105A105B10549
:1004600010F461E00CC0AC01BD01485251096109B2
:100470007109483251056105710528F460E08C2F3F
:100480000E9432050DC088379105A105B10540F0E5
:10049000109298001092990010929A0010929B006E
:1004A000CF5FCD13CCCFDF91CF911F910F910895E6
:1004B000EF92FF920F931F93CF93DF939AE8E92E69
:1004C00090E0F92E8B01D4E0D80FC82FF70180817E
:1004D000813079F4F8018081833029F41082F701AA
:1004E000108260E003C0813021F461E08C2F0E9413
:1004F0003205FFEFEF1AFF0A0F5F1F4FCF5FCD13DB
:10050000E5CFDF91CF911F910F91FF90EF9008956C
:1005100060E088E10E94320560E089E10C943205D8
:1005200061E088E10E94320560E089E10C943205C7
:100530000F931F93CF93DF930EE810E0C0E0D1E05C
:1005400060E080E00E94270160918E0070E080E012
:1005500090E00E94510162E080E00E9427016091DA
:100560008F0070E080E090E00E94510164E080E044
:100570000E9427016091900070E080E090E00E946E
:10058000510166E080E00E9427016091910070E0D7
:1005900080E090E00E9451018C2F0E94150581118E
:1005A0002CC0C093A100F80180818F5F808312BEB0
:1005B0001092A2001092A3001092A4001092A50025
:1005C0008C2F0E9415058823D9F310929800109261
:1005D000990010929A0010929B008091A200909135
:1005E000A300A091A400B091A50080939D009093DA
:1005F0009E00A0939F00B093A00088E00E94150584
:1006000081110AC088E00E9415058823D9F38091E2
:100610009C008D2780939C00CF5F0F5F1F4FC430DD
:1006200009F08ECFDF91CF911F910F910895FF9226
:100630000F931F93CF93DF930AE810E0CEE8D0E04A
:10064000FF24F394F80181918F01833029F4F8821B
:1006500080E10E94D5010EC0823029F4F88280E149
:100660000E94160207C0813029F46EE870E080E134
:100670000E9458022196F0E0C239DF0719F7DF9196
:10068000CF911F910F91FF90089580919C0081114F
:1006900002C00C9488020C9490020E9402050E94F1
:1006A000090165E080E00E94B40578940E94D405B9
:1006B00063E080E00E94270180E690E00E943C0118
:1006C0002FEF89E698E1215080409040E1F700C08B
:1006D00000000E9432010E9498020E9417030E94AB
:1006E0004503F9CF1F920F920FB60F9211248F93EB
:1006F0009F93AF93BF93EF93FF9380919D00909151
:100700009E00A0919F00B091A000E091A100F0E0B8
:10071000E657FF4F82339105A105B10510F083E044
:1007200007C04497A105B10510F082E001C081E047
:1007300080838091A2009091A300A091A400B09129
:10074000A5000196A11DB11D8093A2009093A30066
:10075000A093A400B093A500809198009091990077
:10076000A0919A00B0919B000196A11DB11D8093AC
:10077000980090939900A0939A00B0939B00FF91EA
:10078000EF91BF91AF919F918F910F900FBE0F90FE
:100790001F901895982F969596959695877061302D
:1007A00049F008F447C0623009F490C0633009F49E
:1007B000D9C008959130A1F028F09230F9F093302B
:1007C00059F108954BB321E030E0B90102C0660F42
:1007D000771F8A95E2F7CB01962F909594233EC020
:1007E00048B321E030E0B90102C0660F771F8A9557
:1007F000E2F7CB01962F9095942341C045B321E0B9
:1008000030E0B90102C0660F771F8A95E2F7CB018D
:10081000962F9095942344C042B321E030E0B90173
:1008200002C0660F771F8A95E2F7CB01962F90954D
:10083000942347C09130B9F028F0923029F19330D9
:10084000A1F108954BB321E030E0B90102C0660F79
:10085000771F8A95E2F7CB01942F982B9BBB9AB315
:10086000892B8ABB089548B321E030E0B90102C06A
:10087000660F771F8A95E2F7CB01942F982B98BBD0
:1008800097B3892B87BB089545B321E030E0B901C8
:1008900002C0660F771F8A95E2F7CB01942F982B41
:1008A00095BB94B3892B84BB089542B321E030E01B
:1008B000B90102C0660F771F8A95E2F7CB01942F2A
:1008C000982B92BB91B3892B81BB08959130B9F0DD
:1008D00028F0923029F19330A1F108954BB321E033
:1008E00030E0B90102C0660F771F8A95E2F7CB01AD
:1008F0008095942F98239BBB9AB38923B2CF48B39A
:1009000021E030E0B90102C0660F771F8A95E2F757
:10091000CB018095942F982398BB97B38923B2CFAE
:1009200045B321E030E0B90102C0660F771F8A9518
:10093000E2F7CB018095942F982395BB94B389233C
:10094000B2CF42B321E030E0B90102C0660F771F99
:100950008A95E2F7CB018095942F982392BB91B3AF
:100960008923B2CF9130C1F028F0923039F1933021
:10097000B9F108954AB321E030E0B90102C0660F31
:10098000771F8A95E2F7CB01962F909594239ABB17
:100990009BB3892B8BBB089547B321E030E0B901AD
:1009A00002C0660F771F8A95E2F7CB01962F9095CC
:1009B000942397BB98B3892B88BB089544B321E057
:1009C00030E0B90102C0660F771F8A95E2F7CB01CC
:1009D000962F9095942394BB95B3892B85BB08954E
:1009E00041B321E030E0B90102C0660F771F8A955C
:1009F000E2F7CB01962F9095942391BB92B3892B6C
:100A000082BB08950F931F93CF930AE610E0C0E0D6
:100A1000F80161918F018C2F0E94CA03CF5FC03211
:100A2000B9F7CF911F910F910895282F27708695C0
:100A300086958695813049F030F0823041F08330E0
:100A400079F480B305C089B303C086B301C083B312
:100A500090E002C0959587952A95E2F781700895F8
:100A600080E00895982F96959695969587706623C1
:100A7000D9F1613009F077C0913091F028F09230CF
:100A8000D9F0933029F108954BB321E030E0B9015A
:100A900002C0660F771F8A95E2F7CB01842B38C01E
:100AA00048B321E030E0B90102C0660F771F8A9594
:100AB000E2F7CB01842B3AC045B321E030E0B90125
:100AC00002C0660F771F8A95E2F7CB01842B3CC0EA
:100AD00042B321E030E0B90102C0660F771F8A956A
:100AE000E2F7CB01842B3EC09130A1F028F0923088
:100AF000F9F0933059F108954BB321E030E0B9019A
:100B000002C0660F771F8A95E2F7CB018095842398
:100B10008BBB089548B321E030E0B90102C0660FF5
:100B2000771F8A95E2F7CB018095842388BB0895CF
:100B300045B321E030E0B90102C0660F771F8A9506
:100B4000E2F7CB018095842385BB089542B321E071
:100B500030E0B90102C0660F771F8A95E2F7CB013A
:100B60008095842382BB0895813059F038F082301B
:100B700071F0833091F483B780640BC083B78F7BAF
:100B800002C083B7806483BF83B7877F05C083B704
:100B90008F7B83BF83B7886083BF83B7887F83BF22
:100BA00083B7682B63BF089589B7816089BF0895B3
:100BB0001F920F920FB60F9211242F933F934F93D2
:100BC0005F936F937F938F939F93AF93BF93EF93B5
:100BD000FF93E0919600F0919700309709F0099506
:100BE000FF91EF91BF91AF919F918F917F916F9105
:100BF0005F914F913F912F910F900FBE0F901F90DB
:100C000018951F920F920FB60F9211242F933F93B6
:100C10004F935F936F937F938F939F93AF93BF9304
:100C2000EF93FF93E0919400F0919500309709F0D5
:100C30000995FF91EF91BF91AF919F918F917F9116
:100C40006F915F914F913F912F910F900FBE0F9039
:100C50001F9018951F920F920FB60F9211242F9389
:100C60003F934F935F936F937F938F939F93AF9334
:100C7000BF93EF93FF93E0919200F0919300309730
:100C800009F00995FF91EF91BF91AF919F918F91DD
:100C90007F916F915F914F913F912F910F900FBE78
:100CA0000F901F901895052E97FB1EF400940E943C
:100CB0006A0657FD07D00E94720607FC03D04EF467
:100CC0000C946A0650954095309521953F4F4F4FB3
:100CD0005F4F089590958095709561957F4F8F4FE8
:100CE0009F4F0895A1E21A2EAA1BBB1BFD010DC048
:100CF000AA1FBB1FEE1FFF1FA217B307E407F507CC
:100D000020F0A21BB30BE40BF50B661F771F881FA7
:100D1000991F1A9469F760957095809590959B013D
:0C0D2000AC01BD01CF010895F894FFCF95
:100D2C00212148454C4C4F212100030303030101B1
:100D3C000101030000010101020101010101000098
:0A0D4C000002010102000000000097
:00000001FF
