:100000000C942A000C9447000C9447000C94470071
:100010000C9447000C9447000C9484020C94320218
:100020000C945B020C9447000C9447000C94550010
:100030000C9447000C9447000C9447000C94470024
:100040000C9447000C9447000C9447000C94470014
:100050000C94470011241FBECFE5D8E0DEBFCDBF12
:1000600010E0A0E6B0E0EEE5F5E002C005900D92EC
:10007000A038B107D9F720E0A0E8B0E001C01D9298
:10008000AA38B207E1F70E9449000C94AD020C9423
:1000900000000E94F401789462E080E00E94040273
:1000A0000E942E0286E082BFFFCF1F920F920FB6F2
:1000B0000F9211242F933F934F935F936F937F93EE
:1000C0008F939F93AF93BF93EF93FF9386E082BF8D
:1000D0008091860090918700A0918800B09189005E
:1000E0000196A11DB11D8093860090938700A09377
:1000F0008800B0938900803A2FE09207A105B105EE
:1001000029F460E087E00E94A80011C080349F417C
:10011000A105B10561F4109286001092870010923B
:1001200088001092890061E087E00E94A800FF919A
:10013000EF91BF91AF919F918F917F916F915F915F
:100140004F913F912F910F900FBE0F901F901895D8
:10015000982F9695969596958770613049F008F49A
:1001600057C0623009F4A0C0633009F4EDC00895AF
:100170009130C1F028F0923039F19330B9F10895FF
:100180004BB321E030E0B90102C0660F771F8A95BA
:10019000E2F7CB01962F909594239BBB9AB3892BC2
:1001A0008ABB089548B321E030E0B90102C0660F70
:1001B000771F8A95E2F7CB01962F9095942398BBF1
:1001C00097B3892B87BB089545B321E030E0B9018F
:1001D00002C0660F771F8A95E2F7CB01962F9095A4
:1001E000942395BB94B3892B84BB089542B321E03B
:1001F00030E0B90102C0660F771F8A95E2F7CB01A4
:10020000962F9095942392BB91B3892B81BB08952F
:100210009130B9F028F0923029F19330A1F108958E
:100220004BB321E030E0B90102C0660F771F8A9519
:10023000E2F7CB01942F982B9BBB9AB3892B8ABBF7
:10024000089548B321E030E0B90102C0660F771F7E
:100250008A95E2F7CB01942F982B98BB97B3892B03
:1002600087BB089545B321E030E0B90102C0660FB5
:10027000771F8A95E2F7CB01942F982B95BB94B307
:10028000892B84BB089542B321E030E0B90102C05C
:10029000660F771F8A95E2F7CB01942F982B92BBBC
:1002A00091B3892B81BB08959130C1F028F0923031
:1002B00039F19330B9F108954BB321E030E0B90141
:1002C00002C0660F771F8A95E2F7CB018095942FC5
:1002D00098239BBB9AB389238ABB089548B321E036
:1002E00030E0B90102C0660F771F8A95E2F7CB01B3
:1002F0008095942F982398BB97B3892387BB089543
:1003000045B321E030E0B90102C0660F771F8A953E
:10031000E2F7CB018095942F982395BB94B3892362
:1003200084BB089542B321E030E0B90102C0660FFA
:10033000771F8A95E2F7CB018095942F982392BB83
:1003400091B3892381BB08959130C1F028F0923098
:1003500039F19330B9F108954AB321E030E0B901A1
:1003600002C0660F771F8A95E2F7CB01962F909512
:1003700094239ABB9BB3892B8BBB089547B321E091
:1003800030E0B90102C0660F771F8A95E2F7CB0112
:10039000962F9095942397BB98B3892B88BB08958B
:1003A00044B321E030E0B90102C0660F771F8A959F
:1003B000E2F7CB01962F9095942394BB95B3892BAC
:1003C00085BB089541B321E030E0B90102C0660F5A
:1003D000771F8A95E2F7CB01962F9095942391BBD6
:1003E00092B3892B82BB0895CF93C0E009C0EC2F54
:1003F000F0E0E05AFF4F60818C2F0E94A800CF5F91
:10040000C032A8F3CF910895813069F028F082308E
:1004100089F08330B1F01BC083B78F7B83BF83B774
:10042000877F83BF14C083B7806483BF83B7877F10
:1004300083BF0DC083B78F7B83BF83B7886083BFC3
:1004400006C083B7806483BF83B7886083BF83B7E8
:10045000887F83BF83B7682B63BF089589B78160A6
:1004600089BF08951F920F920FB60F9211242F93F8
:100470003F934F935F936F937F938F939F93AF932C
:10048000BF93EF93FF93E0918400F0918500309744
:1004900009F00995FF91EF91BF91AF919F918F91D5
:1004A0007F916F915F914F913F912F910F900FBE70
:1004B0000F901F9018951F920F920FB60F92112454
:1004C0002F933F934F935F936F937F938F939F935C
:1004D000AF93BF93EF93FF93E0918200F09183007D
:1004E000309709F00995FF91EF91BF91AF919F91DE
:1004F0008F917F916F915F914F913F912F910F90CD
:100500000FBE0F901F9018951F920F920FB60F926B
:1005100011242F933F934F935F936F937F938F9308
:100520009F93AF93BF93EF93FF93E0918000F0917F
:100530008100309709F00995FF91EF91BF91AF913C
:100540009F918F917F916F915F914F913F912F91EB
:0E0550000F900FBE0F901F901895F894FFCFDC
:10055E000000000000000000000000000101020188
:10056E000000000000000002000002000000000079
:00000001FF
