S00C000050726F322E73726563B5
S11300000C942A000C94FE010C9447000C944700B5
S11300100C9447000C9447000C94C1040C946F0496
S11300200C9498040C9447000C9447000C944700DB
S11300300C9447000C9447000C9447000C94470020
S11300400C9447000C9447000C9447000C94470010
S11300500C94470011241FBECFE5D8E0DEBFCDBF0E
S113006010E0A0E6B0E0EAE5FAE002C005900D92E7
S1130070AA38B107D9F720E0AAE8B0E001C01D9280
S1130080A139B207E1F70E94B1010C942B050C943D
S11300900000CF93C82F60E089E00E94BD036C2F5D
S11300A0661F6627661F87E00E94BD03C6FB66279E
S11300B060F986E00E94BD03C5FB662760F985E010
S11300C00E94BD03C4FB662760F984E00E94BD035F
S11300D061E088E00E94BD038FEC97E00197F1F79F
S11300E000C0000060E088E00E94BD038FEC97E050
S11300F00197F1F700C00000C3FB662760F987E0B1
S11301000E94BD03C2FB662760F986E00E94BD031E
S1130110C1FB662760F985E00E94BD036C2F617006
S113012084E00E94BD0361E088E00E94BD038FEC7F
S113013097E00197F1F700C0000060E088E00E94BA
S1130140BD038FEC97E00197F1F700C00000CF9159
S11301500895CF93C82F61E089E00E94BD036C2FFE
S1130160661F6627661F87E00E94BD03C6FB6627DD
S113017060F986E00E94BD03C5FB662760F985E04F
S11301800E94BD03C4FB662760F984E00E94BD039E
S113019061E088E00E94BD038FEC97E00197F1F7DE
S11301A000C0000060E088E00E94BD038FEC97E08F
S11301B00197F1F700C00000C3FB662760F987E0F0
S11301C00E94BD03C2FB662760F986E00E94BD035E
S11301D0C1FB662760F985E00E94BD036C2F617046
S11301E084E00E94BD0361E088E00E94BD038FECBF
S11301F097E00197F1F700C0000060E088E00E94FA
S1130200BD038FEC97E00197F1F700C00000CF9198
S113021008952FE788E391E0215080409040E1F772
S113022000C0000082E00E94490088E20E94490068
S11302308CE00E94490081E00E9449008FEC97E025
S11302400197F1F700C0000086E00E94490008957C
S1130250811105C080E8860F0E944900089581300D
S113026021F480EC860F0E94490008950E94A900A1
S113027008950F931F93CF938C01C0E003C00E9495
S11302803601CF5FF801EC0FF11DC7FDFA958081AF
S11302908111F5CFCF911F910F910895CF92DF92E5
S11302A0EF92FF921F93CF93DF93CDB7DEB764979E
S11302B00FB6F894DEBF0FBECDBF6B017C01611594
S11302C071058105910521F480E30E9436013BC04C
S11302D099235CF48DE20E943601F094E094D0946A
S11302E0C094C11CD11CE11CF11C10E015C0C70155
S11302F0B6012AE030E040E050E00E94EA04E1E088
S1130300F0E0EC0FFD1FE10FF11D605D60831F5FE6
S1130310C22ED32EE42EF52EC114D104E104F1042F
S113032031F7FF24FA94F10E0CC0E1E0F0E0EC0F99
S1130330FD1FEF0DF11DF7FCFA9580810E94360137
S1130340FA94FF2094F764960FB6F894DEBF0FBEBC
S1130350CDBFDF91CF911F91FF90EF90DF90CF90B1
S113036008950E9475030E940901789481E00E9417
S113037044040E945A0463E080E00E94290262E07F
S11303808AE10E94290260E080E00E94280180E660
S113039090E00E94390185E50E946A04C82F60E05C
S11303A081E00E9428016C2F70E080E090E00E94C0
S11303B04E0180E00E948503811108C061E08CE059
S11303C00E94290285E50E946A04C82F60E08CE03F
S11303D00E94290260E081E00E9428016C2F70E0F5
S11303E080E090E00E944E018AE10E948503813002
S11303F001F785E50E946A04C82FDBCF1F920F9294
S11304000FB60F9211242F933F934F935F936F93E3
S11304107F938F939F93AF93BF93EF93FF9361E089
S11304208CE00E94290280E00E946A0480938A0082
S1130430FF91EF91BF91AF919F918F917F916F91B8
S11304405F914F913F912F910F900FBE0F901F908E
S11304501895982F9695969596958770613049F0E2
S113046008F457C0623009F4A0C0633009F4EDC049
S113047008959130C1F028F0923039F19330B9F1F8
S113048008954BB321E030E0B90102C0660F771F35
S11304908A95E2F7CB01962F909594239BBB9AB350
S11304A0892B8ABB089548B321E030E0B90102C02A
S11304B0660F771F8A95E2F7CB01962F90959423C8
S11304C098BB97B3892B87BB089545B321E030E0EF
S11304D0B90102C0660F771F8A95E2F7CB01962F08
S11304E09095942395BB94B3892B84BB089542B310
S11304F021E030E0B90102C0660F771F8A95E2F768
S1130500CB01962F9095942392BB91B3892B81BBF9
S113051008959130B9F028F0923029F19330A1F187
S113052008954BB321E030E0B90102C0660F771F94
S11305308A95E2F7CB01942F982B9BBB9AB3892B16
S11305408ABB089548B321E030E0B90102C0660FC8
S1130550771F8A95E2F7CB01942F982B98BB97B31A
S1130560892B87BB089545B321E030E0B90102C06F
S1130570660F771F8A95E2F7CB01942F982B95BBD2
S113058094B3892B84BB089542B321E030E0B901D0
S113059002C0660F771F8A95E2F7CB01942F982B40
S11305A092BB91B3892B81BB08959130C1F028F09F
S11305B0923039F19330B9F108954BB321E030E032
S11305C0B90102C0660F771F8A95E2F7CB018095C7
S11305D0942F98239BBB9AB389238ABB089548B36D
S11305E021E030E0B90102C0660F771F8A95E2F777
S11305F0CB018095942F982398BB97B3892387BB0D
S1130600089545B321E030E0B90102C0660F771FB9
S11306108A95E2F7CB018095942F982395BB94B3E8
S1130620892384BB089542B321E030E0B90102C0BC
S1130630660F771F8A95E2F7CB018095942F982354
S113064092BB91B3892381BB08959130C1F028F006
S1130650923039F19330B9F108954AB321E030E092
S1130660B90102C0660F771F8A95E2F7CB01962F76
S1130670909594239ABB9BB3892B8BBB089547B366
S113068021E030E0B90102C0660F771F8A95E2F7D6
S1130690CB01962F9095942397BB98B3892B88BB55
S11306A0089544B321E030E0B90102C0660F771F1A
S11306B08A95E2F7CB01962F9095942394BB95B33A
S11306C0892B85BB089541B321E030E0B90102C014
S11306D0660F771F8A95E2F7CB01962F90959423A6
S11306E091BB92B3892B82BB0895CF93C0E009C01C
S11306F0EC2FF0E0E759FF4F60818C2F0E94290214
S1130700CF5FC032A8F3CF910895982F9695969510
S11307109695482F4770913081F028F09230B9F0C7
S11307209330F9F028C099B3892F90E002C09595D1
S113073087954A95E2F78170089526B330E0C901A0
S113074002C0959587954A95E2F78170089523B381
S113075030E0C90102C0959587954A95E2F781700A
S1130760089520B330E0C90102C0959587954A9554
S1130770E2F78170089580E00895982F96959695F4
S113078096958770662309F43FC0613009F07BC0F9
S1130790913099F028F09230E9F0933041F10895C6
S11307A04BB321E030E0B90102C0660F771F8A9590
S11307B0E2F7CB01842B8BBB089548B321E030E0F2
S11307C0B90102C0660F771F8A95E2F7CB01842B2B
S11307D088BB089545B321E030E0B90102C0660F3B
S11307E0771F8A95E2F7CB01842B85BB089542B32A
S11307F021E030E0B90102C0660F771F8A95E2F765
S1130800CB01842B82BB08959130A1F028F0923063
S1130810F9F0933059F108954BB321E030E0B90178
S113082002C0660F771F8A95E2F7CB018095842377
S11308308BBB089548B321E030E0B90102C0660FD4
S1130840771F8A95E2F7CB018095842388BB0895AE
S113085045B321E030E0B90102C0660F771F8A95E5
S1130860E2F7CB018095842385BB089542B321E050
S113087030E0B90102C0660F771F8A95E2F7CB0119
S11308808095842382BB0895882319F0813041F038
S11308900DC085B7826085BF85B78E7F85BF06C0D2
S11308A085B7826085BF85B78E7F85BF8BB780642F
S11308B08BBF08958DB180628DB98DB180618DB982
S11308C08EB181608EB98DB181608DB98DB1806436
S11308D08DB908958FB9779BFECF8FB108951F927C
S11308E00F920FB60F9211242F933F934F935F9360
S11308F06F937F938F939F93AF93BF93EF93FF93E4
S1130900E0918F00F0919000309709F00995FF91E4
S1130910EF91BF91AF919F918F917F916F915F9173
S11309204F913F912F910F900FBE0F901F901895EC
S11309301F920F920FB60F9211242F933F934F9350
S11309405F936F937F938F939F93AF93BF93EF9333
S1130950FF93E0918D00F0918E00309709F0099596
S1130960FF91EF91BF91AF919F918F917F916F9183
S11309705F914F913F912F910F900FBE0F901F9059
S113098018951F920F920FB60F9211242F933F9335
S11309904F935F936F937F938F939F93AF93BF9383
S11309A0EF93FF93E0918B00F0918C00309709F066
S11309B00995FF91EF91BF91AF919F918F917F9195
S11309C06F915F914F913F912F910F900FBE0F90B8
S11309D01F901895052E97FB1EF400940E940105A4
S11309E057FD07D00E94090507FC03D04EF40C9470
S11309F0010550954095309521953F4F4F4F5F4FDE
S1130A00089590958095709561957F4F8F4F9F4F76
S1130A100895A1E21A2EAA1BBB1BFD010DC0AA1F3B
S1130A20BB1FEE1FFF1FA217B307E407F50720F053
S1130A30A21BB30BE40BF50B661F771F881F991FCE
S1130A401A9469F760957095809590959B01AC0117
S10D0A50BD01CF010895F894FFCF13
S1130A5A4D41535445523A3A000000000000000048
S1130A6A0000000000010102010000000000000073
S10D0A7A020000020000000000006A
S9030000FC
